:020000040800F2
:1000000000800020051C0008610600086306000847
:1000100000000000000000000000000000000000E0
:10002000000000000000000000000000650600085D
:1000300000000000000000006706000869060008D4
:10004000551C0008551C0008551C0008551C0008CC
:10005000551C0008551C0008551C000871060008B6
:10006000551C0008551C0008551C0008551C0008AC
:10007000551C0008551C0008551C0008551C00089C
:10008000551C00088506000895060008551C000848
:10009000551C0008551C0008551C0008551C00087C
:1000A000551C0008551C0008551C0008551C00086C
:1000B000551C0008551C0008551C0008551C00085C
:1000C000002243088B4274D303098B425FD3030A97
:1000D0008B4244D3030B8B4228D3030C8B420DD3AA
:1000E000FF22090212BA030C8B4202D31212090238
:1000F00065D0030B8B4219D300E0090AC30B8B4276
:1001000001D3CB03C01A5241830B8B4201D38B0323
:10011000C01A5241430B8B4201D34B03C01A5241C8
:10012000030B8B4201D30B03C01A5241C30A8B420B
:1001300001D3CB02C01A5241830A8B4201D38B02F6
:10014000C01A5241430A8B4201D34B02C01A52419A
:10015000030A8B4201D30B02C01A5241CDD2C3090C
:100160008B4201D3CB01C01A524183098B4201D388
:100170008B01C01A524143098B4201D34B01C01A73
:10018000524103098B4201D30B01C01A5241C308EB
:100190008B4201D3CB00C01A524183088B4201D35A
:1001A0008B00C01A524143088B4201D34B00C01A46
:1001B0005241411A00D20146524110467047FFE7B2
:1001C00001B5002000F006F802BDC0460029F7D0B6
:1001D00076E770477047C0460448054B10B5834228
:1001E00003D0044B002B00D0984710BD0C0000201A
:1001F0000C0000200000000006480749091A8B1077
:10020000C90FC91810B5491003D0044B002B00D0FA
:10021000984710BD0C0000200C00002000000000DA
:1002200010B5074C2378002B09D1FFF7D5FF054BFC
:10023000002B02D0044800E000BF0123237010BD52
:100240000C00002000000000B01C0008054B10B599
:10025000002B03D00449054800E000BFFFF7CCFFA6
:1002600010BDC0460000000010000020B01C0008B7
:1002700072B6FEE700B599B04C22002105A801F046
:10028000EAFC1022002101A801F0E5FC8020C0005A
:1002900000F0F2FF02230593FE330893C03B09935D
:1002A0000023109305A800F04DFB00280ED1072372
:1002B0000193063B0293002303930493012101A8B9
:1002C00000F040FE002803D119B000BDFFF7D0FFB9
:1002D000FFF7CEFF10B582B001F050F8FFF7CAFF6C
:1002E00000F022F800F0D6F800F02CF900F056F9F2
:1002F00001AB0B4A1A80002000F0ECF9A02020216D
:10030000C00500F097FFFA24A400200001F054F883
:1003100004482300022201A901F004FAEEE7C046D6
:10032000A55A000028000020F0B5DE4657464E468C
:100330004546E0B58BB01422002105A801F08BFCE6
:100340004C4BDA6C04263243DA64DA6C32400092A9
:10035000009ADA6C20218A460A43DA64DA6C0A4091
:100360000192019ADA6C1F398B460A43DA64DA6C1F
:100370000A400292029ADA6C02273A43DA64DA6C93
:100380003A400392039AD96C08221143D964DB6C7A
:100390001A400492049BA023DB059846002280218A
:1003A0004900180000F040FF334B059303250695E4
:1003B0000024079405A9314800F06EFE0C23059334
:1003C0000695079405A92E4800F066FE2D4B05936F
:1003D0000695079405A9404600F05EFE2A4B05935A
:1003E00006950794294B994605A9180000F054FE7C
:1003F00080235B0005935B4606930794089505A947
:10040000404600F049FE8023DB00059388235B0310
:100410009B460693079705A9404600F03DFE0596CA
:100420000695079405A91A4800F036FE5346059331
:100430005B460693079705A9484600F02DFEC023AA
:100440009B0005931223069307940894099605A927
:10045000484600F021FE00220121072000F0A8F903
:10046000072000F0A9F90BB0F0BCBB46B246A94684
:10047000A046F0BD00100240FF3F00000008005001
:10048000001400505D9A0000DFFC000000040050E2
:10049000000C005010B51148114B036082235B0023
:1004A000436000238360F0221201C2600361436154
:1004B000802292008261C361036243628362FA3ADE
:1004C000FF3AC26203630833436301F0B1F80028C6
:1004D00000D110BDFFF7CCFEFBE7C046280000208E
:1004E0000030014010B588B004001422002103A898
:1004F00001F0B1FB2268114B9A4201D008B010BD47
:100500000F4B1A6E802149010A431A661A6E0A407F
:100510000192019AD96C01221143D964DB6C1A4013
:100520000292029B82230393803B0493033307933D
:10053000A02003A9C00500F0AFFDDFE700300140B7
:100540000010024000B585B00C22002101A801F086
:1005500082FB1048104B0360FA239B014360002389
:1005600083600A33C3607633836101F0B7FA0028F1
:100570000AD1002301930393064801A901F0DEFA92
:10058000002804D105B000BDFFF772FEF1E7FFF7C8
:100590006FFEF7E7D80000200010004000B585B0DE
:1005A0000C22002101A801F056FB1048104B0360FB
:1005B000FA239B014360002383600A33C3607633D0
:1005C000836101F08BFA00280AD100230193039381
:1005D000064801A901F0B2FA002804D105B000BD17
:1005E000FFF746FEF1E7FFF743FEF7E78C00002038
:1005F0000014004000B583B00368164A934204D04B
:10060000154A934213D003B000BD144A916D1023D4
:1006100019439165926D13400093009B00220021C5
:10062000112000F0C5F8112000F0C6F8EBE70B4AE6
:10063000916D202319439165926D13400193019BA5
:1006400000220021122000F0B3F8122000F0B4F8CC
:10065000D9E7C046001000400014004000100240DE
:10066000FEE7FEE77047704710B500F093FE10BD3F
:1006700010B5202000F0E8FD8020C00000F0E4FD6F
:1006800010BD000010B5024801F02CF910BDC046A5
:10069000D800002010B5024801F024F910BDC04672
:1006A0008C00002082B00A4B9A6D802149050A43D4
:1006B0009A659A6D0A400092009A196E01221143C0
:1006C00019661B6E1A400192019B02B07047C0462A
:1006D0000010024000B587B0002817D10D4AD16C38
:1006E00001231943D164D26C1A400092009A20224F
:1006F000019202930023039303330493A03001A9D2
:10070000C00500F0C9FC002007B000BD0220404237
:10071000FAE7C0460010024070B5002811DB8308DC
:10072000134DC0339B005C5903221040C000FC32C3
:1007300016008640B44389010A40824022435A5140
:1007400070BD0F230340083B9B0806339B00094AFA
:10075000944663445C6803221040C000FC321500DC
:100760008540AC4389010A40824022435A60E7E752
:1007700000E100E000ED00E0013880235B049842D6
:100780000FD2094A50600948036A1B021B0AC021A4
:1007900009060B43036200239360073313600020B4
:1007A00070470120FCE7C04610E000E000ED00E0EB
:1007B00010B5FFF7B1FF10BD002805DB1F22024076
:1007C00001239340014A13607047C04600E100E0F6
:1007D00010B5FFF7D1FF10BD30B583B00400204B3A
:1007E0009B6DDB000BD500F095FD80239B009842AC
:1007F00016D07F2C24D8702C1AD0002021E0184D60
:10080000AB6D802252051343AB65AB6D1340019372
:10081000019B00F07FFDAB6D124A1340AB65E4E72E
:10082000802C07D9B02C07D8902C07D9012008E0DC
:10083000012006E0002004E0022002E0002000E0A9
:10084000022009490B680722934303430B600B689E
:100850001A40824202D1002003B030BD0120FBE7E4
:1008600000100240FFFFFFEF0020024010B5314BA7
:100870009968382002000A40DC68032323400842BC
:100880000ED0182A0AD0082A28D0102A29D0202AC7
:100890002AD0282A2CD00020002314E0012BF2D1EA
:1008A000244B1B681B0711D422499423C958090AF9
:1008B000853B0B400B2B00D900231F499B005B5845
:1008C000002A09D00020182A16D010BD194B19682B
:1008D00009090F230B40EDE71800F4E71748002340
:1008E000F1E717480023EEE7FA20C0010023EAE70A
:1008F000802000020023E6E70E49C868153A02404E
:10090000C8680009072101400131022A10D0032ADA
:1009100000D10B4B074CE068000A7F22104058437F
:10092000FFF7CEFBE168490F0131FFF7C9FBCCE7C8
:10093000024BEFE700100240C81C00080024F4003E
:1009400000093D00F0B583B00400C54B9A68382516
:100950001540DB6803261E400368DB0659D5002DD1
:100960001BD0182D17D0E369002B00D1B3E0BC4A8F
:10097000136801210B43136000F018FD0700B84B0A
:100980001B689B0700D593E000F010FDC01B0228F8
:10099000F5D90320C5E2012EE5D1B14B1B689B07B9
:1009A00003D5E369002B00D1B2E2606AAC4B1B684F
:1009B0001B0757D5AA4B1A68F0231340984258D802
:1009C000A74B1A6808210A431A601A68E8318A435B
:1009D000616A0A431A605A68A2490A40216A0902F8
:1009E0000A435A60002D5CD0FFF740FF9C4B9A6889
:1009F000120A0F2313409C4AD25C1F231340D84095
:100A00009A4B18609A4B186800F08CFC002800D0B4
:100A100087E22368DB077BD5102D71D0182D6DD0B0
:100A2000636880225202934200D18FE0A022D2025A
:100A3000934200D191E08A4A13688E490B401360BB
:100A40006368002B00D18FE000F0B0FC0700844BFE
:100A50001B689B035CD400F0A9FCC01B6428F6D97A
:100A600003205EE27E4A9423D25812095C3313407D
:100A7000A4E7FFF7B1FE002800D04BE2784B1A68DC
:100A800008210A431A601A68E8318A43616A0A43F6
:100A90001A605A6873490A40216A09020A435A6077
:100AA000A2E7606AFFF798FE00289DD0012038E297
:100AB0006B4B1A6808210A431A601A68E8318A43A6
:100AC000616A0A431A605A6866490A40216A090243
:100AD0000A435A609DE7624A136801218B43136001
:100AE00000F064FC07005E4B1B689B0791D500F08B
:100AF0005DFCC01B0228F6D9032012E2032E8FD121
:100B0000574B1B689B0303D56368002B00D103E29E
:100B100023689B0748D5082D36D0182D32D0E368BE
:100B2000002B6ED04E4A116880235B000B4313608C
:100B300000F03CFC05004A4B1B685B0558D400F0F4
:100B400035FC401B0228F6D90320EAE1444A11682B
:100B500080235B020B43136072E7414A1168A023B4
:100B6000DB020B4313606BE700F020FC07003C4BFB
:100B70001B689B03CCD500F019FCC01B6428F6D978
:100B80000320CEE1022ECAD1354B1B685B0503D58D
:100B9000E368002B00D1C1E131494B68364A13406C
:100BA0002269120613434B6023681B0768D56369EB
:100BB000002B40D0A369002B36D1294994228B58B1
:100BC000042083438B50264994228B5801200343F1
:100BD0008B5000F0EBFB0500214A9423D3589B0770
:100BE0004ED400F0E3FB401B1128F5D9032098E117
:100BF0001B494B68204A13402269120613434B607D
:100C0000D2E7174A13681D490B40136000F0CEFB72
:100C10000500134B1B685B05C6D500F0C7FB401BE6
:100C20000228F6D903207CE10D4994228B58042038
:100C300003438B50C7E70A4994228B580120834312
:100C40008B5000F0B3FB0500054A9423D3589B0753
:100C500016D500F0ABFB401B1128F5D9032060E14D
:100C600000100240FF00FFFFF81C000808000020F1
:100C700004000020FFFFFAFFFFFFFF80FFFEFFFFE1
:100C800023685B0700D4AEE0A84B9B6DDB000BD460
:100C9000A64B9A6D802149050A439A659B6D0B40CE
:100CA0000193019B012500E00025A14B1B68DB059A
:100CB0000FD5A368DA0727D55B071ED59B4A90237B
:100CC000D15804200143D150D15803380143D150A9
:100CD00024E0974A116880235B000B43136000F007
:100CE00065FB0600924B1B68DB05E2D400F05EFB5F
:100CF000801B0228F6D9032013E18C4990228B58DF
:100D0000012003438B5009E0884A9023D1580120E9
:100D10008143D150D15803308143D150A368002B77
:100D200038D000F043FB0600804A9023D3589B073D
:100D300007D400F03BFB801B7E4B9842F4D9032084
:100D4000EFE0A3681B0612D5110090228B5880207B
:100D500003438B50754A9023D3581B0541D400F0B0
:100D600025FB801B734B9842F4D90320D9E06F49CF
:100D700090228B58802083438B506C4A9023D35809
:100D80001B052ED500F012FB801B6A4B9842F4D94C
:100D90000320C6E000F00AFB0600644A9023D35803
:100DA0009B0707D500F002FB801B624B9842F4D9E9
:100DB0000320B6E09023D3581B0612D511009022D1
:100DC0008B58802083438B50584A9023D3581B055F
:100DD00007D500F0EBFA801B564B9842F4D903205C
:100DE0009FE0012D1AD023689B0632D5A36A002B01
:100DF0001AD04E4998228B58012003438B5000F0A3
:100E0000D5FA0500494A9823D3589B0721D400F00E
:100E1000CDFA401B0228F5D9032082E0434A936DA6
:100E200045490B409365DEE7404998228B580120E5
:100E300083438B5000F0BAFA05003C4A9823D358FC
:100E40009B0706D500F0B2FA401B0228F5D9032013
:100E500067E0E36A002B63D0344A916838220A4085
:100E6000182A60D0022B12D0304A136833490B4045
:100E7000136000F09BFA04002C4B1B689B0145D5C6
:100E800000F094FA001B0228F6D9032049E0274A13
:100E900013682A490B40136000F088FA0500234BC1
:100EA0001B689B0106D500F081FA401B0228F6D989
:100EB000032036E01D4AD36821491940236B606B3B
:100EC0000343A06B00020343206C0343606C0343A5
:100ED000E06B03430B43D360D16880235B050B4376
:100EE000D360116880235B040B43136000F05EFA4B
:100EF00004000E4B1B689B0106D400F057FA001B40
:100F00000228F6D903200CE000200AE0002008E0C7
:100F1000012006E0012004E0012002E0012000E0C1
:100F2000002003B0F0BD0120FBE7C04600100240E6
:100F30000070004088130000FFFFFFEFFFFFFFFE7F
:100F40008C80C11170B504000D004C4B1A6807234A
:100F500013408B420AD249490B68072293432B4323
:100F60000B600B681A40AA4200D081E02368DB07BF
:100F700048D56368032B09D0022B25D0002B29D13B
:100F80003F4A1268920706D4012070E03C4A12687A
:100F9000920100D46EE03A498A68072082431343E5
:100FA0008B6000F003FA0600354B9B6838221A402C
:100FB0006368DB009A4225D000F0F8F9801B314AC3
:100FC0009042F1D9032052E02D4A12689203E2D4F4
:100FD00001204CE0012B08D0042B0CD02849902292
:100FE0008A589207D7D4012041E0254A1268520559
:100FF000D1D401203BE0224994228A589207CAD4D6
:10100000012034E023689B0706D51D4A93681E49DA
:101010000B40A1680B439360184B1A6807231340D9
:10102000AB4209D915490B68072293432B430B6048
:101030000B681A40AA421FD123685B0706D5104AE5
:10104000936812490B40E1680B439360FFF70EFC75
:101050000B4B9A68120A0F2313400D4AD25C1F23D0
:101060001340D8400B4B1860032000F05BF970BDB3
:101070000120FCE70120FAE70120F8E70020024008
:101080000010024088130000FFF0FFFFFF8FFFFFFA
:10109000F81C000808000020F0B5002359E086681D
:1010A0005F000324BC40A643CC68BC40344384604A
:1010B000446894434E683609012232409A402243E4
:1010C000426056E0DE080836B600375805321A404E
:1010D00092000F249440A7430C69944022003A43A5
:1010E000325059E0052600E00026A64034003C437B
:1010F000474E1832920094513768EA433E00AE439F
:101100004C68E40201D53E002E43414C26606768DE
:101110003E0016404C68A40201D53E002E433C4CD4
:1011200066608426A7593E0016404C68A40301D58A
:101130003E002E43364C8427E6518026A659324085
:101140004C68E40301D52A003243314D80242A51F2
:1011500001330C682200DA4058D001229A40250061
:1011600015401442F4D04E6803243440013C012C55
:1011700095D94C6803222240032A08D0C4685E0037
:101180000322B24094438A68B2402243C2604C6852
:1011900003222240022A95D004685E000322170031
:1011A000B740BC434F683A40B240224302604C68AB
:1011B000C02292021442CBD09A0814001834A40022
:1011C000134EA75903241C40E4000F26A640B74342
:1011D000A026F605B04287D00E4EB0420ED00E4E7D
:1011E000B0420DD00D4EB0420CD00D4EB0420BD0DF
:1011F0000C4EB04200D175E7062676E7012674E76B
:10120000022672E7032670E704266EE7F0BDC046AB
:10121000001802400004005000080050000C00506C
:101220000010005000140050002A01D08161704766
:101230008162FCE7426913000B401B0491430B439E
:10124000836170477047704710B50400094BDB6835
:10125000184204D1074B1B69234205D110BD054B31
:10126000D860FFF7EFFFF5E7024B1C612000FFF7A6
:10127000EAFFF3E70018024010B580239B00984274
:1012800012D0204B1B68C022D20013408022D20013
:10129000934234D01B490A681B4B1A408023DB0061
:1012A00013430B60002010BD164B1B68C022D200F8
:1012B00013408022920093421DD012490A68124BBB
:1012C0001A4080239B0013430B60104B1868322395
:1012D00058430F49FEF7F4FE013000E00138094B96
:1012E0005B695B0501D50028F8D1064B5B695B059E
:1012F00003D40020D7E70020D5E70320D3E7002060
:10130000D1E7C04600700040FFF9FFFF0800002051
:1013100040420F00024B1868C023DB0018407047A2
:101320000070004010B50400114B1968002901D16C
:10133000012010BDFA208000FEF7C2FE01000D4B17
:101340001868FEF7BDFEFFF743FA00280DD1032C05
:1013500001D90120EDE70130002221004042FFF7D2
:1013600027FA054B1C600020E3E70120E1E7C046B7
:1013700000000020080000200400002010B5032019
:10138000FFF7D0FF041E02D00124200010BDFFF79C
:1013900089F9FAE7034A1368034909685B1813607F
:1013A0007047C0462401002000000020014B18684F
:1013B0007047C0462401002070B50400FFF7F6FF17
:1013C0000500631C02D0044B1B68E418FFF7EEFF16
:1013D000401BA042FAD370BD00000020F0B5D646F5
:1013E0004F464646C0B582B006000D0090461F002D
:1013F000FFF7DCFF0A9B181A8146B944FFF7D6FFB6
:1014000082462C4B1B685B011B0D4A4653430193DC
:1014100033689C682C40641B63425C41444542D065
:101420007B1CF5D0FFF7C2FF5346C01A484508D2CF
:10143000019A002A00D04A46019B013B0193914644
:10144000E6E732685368E0218B4353607268822379
:101450005B009A420CD0B26A80239B019A4216D05C
:101460005D230122F254013B0022F25403201BE0D1
:10147000B36880221202934203D08022D2009342AA
:10148000E9D13268136840218B431360E3E7326887
:10149000136809490B4013603268116880239B016F
:1014A0000B431360DCE7002002B0E0BCBA46B14653
:1014B000A846F0BD08000020FFDFFFFFF0B5DE46C4
:1014C00057464E464546E0B583B007000D0016006E
:1014D00098466B460022DA70FFF768FF0C9B181ADB
:1014E00040448146FFF762FF82463B689B46344B8F
:1014F0001B689A00D218D3009B1A1B0D4A4653430F
:10150000019302E04346013311D13B689C682C40B3
:10151000B4424DD0C023DB009D42F3D1002EF1D167
:101520005B461B7BDBB26A46D370D378EAE7FFF7F2
:101530003DFF5346C01A484508D2019A002A00D000
:101540004A46019B013B01939146DEE73A685368A6
:10155000E0218B4353607A6882235B009A420CD06F
:10156000BA6A80239B019A4216D05D230122FA5465
:10157000013B0022FA5403201BE0BB6880221202C8
:10158000934203D08022D2009342E9D13A68136893
:1015900040218B431360E3E73A68136809490B4025
:1015A00013603A68116880239B010B431360DCE7EA
:1015B000002003B0F0BCBB46B246A946A046F0BD31
:1015C00008000020FFDFFFFF70B582B004000D00AF
:1015D0001600C02100922B0000224901FFF76EFF88
:1015E000002818D100962B00002280212000FFF750
:1015F000F5FE002816D1C02100962B000022C9005C
:101600002000FFF75BFF00280AD0236E202213433F
:101610002366032004E0236E202213432366032065
:1016200002B070BD236E2022134323660320F7E728
:1016300070B5041E00D173E0436A002B07D14268E5
:101640000533FF339A4205D00023C36102E0002333
:10165000036143610023A3625D33E35C002B55D03B
:101660005D230222E2542268136840218B431360F9
:10167000E368E022D20093424FD90022F021090111
:101680008B4205D0E021C9008B4201D00023A36228
:101690006368822149000B40A16884200002014058
:1016A0000B432069022101400B436069012108407E
:1016B0000343A0698025AD0028400343E569382035
:1016C00028400343256A802028400343A06A8025E0
:1016D000AD012840256803432B60608B0423034041
:1016E000656A102028400343656B082028400343A7
:1016F000E068F0252D012840034320681343436030
:10170000002323665D33E154002070BD5C3300226A
:10171000E2542000FEF7E6FEA2E780225201ADE788
:101720000120F2E7F0B5CE4600B584B00400019187
:1017300091461D005C23C35C012B00D1CBE05C23F0
:101740000122C254FFF732FE06005D23E35CDFB2E4
:10175000012B00D0B6E00199002900D1B3E04B463F
:10176000002B00D1AFE05D230322E2540023236667
:10177000A1634A46A287E28723644422A35202322D
:10178000A3522365E364A26880231B029A421ED001
:10179000226813685B0603D4136840210B4313606F
:1017A000E268E023DB009A423ED96368002B02D056
:1017B0004B46012B20D1A26B23681288DA60A36B01
:1017C0000233A363E38F013B9BB2E38714E02268FB
:1017D000136840218B431360226811688023DB016A
:1017E0000B431360D4E7FFF7E1FD801BA84201D350
:1017F0006B1C14D1002D12D0E18F89B2002946D084
:10180000226893689B07EED5A36B1B88D360A36BFC
:101810000233A363E38F013B9BB2E387ECE75D23D5
:101820000122E25403274EE06368002B02D04B46AE
:10183000012B14D1A26B236812781A73A36B0133A6
:10184000A363E38F013B9BB2E38708E0FFF7AEFDA4
:10185000801BA84201D36B1C14D1002D12D0E18F44
:1018600089B2002913D0226893689B07EED5A36B39
:101870001B781373A36B0133A363E38F013B9BB20C
:10188000E387ECE75D230122E25403271BE03200EB
:1018900029002000FFF798FE002801D020232366AE
:1018A000A368002B06D103932368DA6803929B6830
:1018B0000393039B236E002B05D15D330122E25479
:1018C000002700E002275C230022E254380004B025
:1018D00080BCB946F0BD0227F8E7704770477047F3
:1018E0007047704770B505000368DE681C69A20781
:1018F0000ED5B2070CD5032252421A610123037799
:1019000003689B699B0757D0FFF7E9FF00232B77FC
:10191000630712D5730710D52B68052252421A614E
:1019200002232B772B689A69C0239B001A4249D067
:101930002800FFF7D4FF00232B77230710D53307A8
:101940000ED52B68092252421A6104232B772B688B
:10195000DB699B073DD02800FFF7C1FF00232B77F1
:10196000E30612D5F30610D52B68112252421A61F4
:1019700008232B772B68DA69C0239B001A422FD0EB
:101980002800FFF7ACFF00232B77E30701D5F3070F
:101990002DD482239B011C4201D033062FD4E305B2
:1019A00001D5330632D4630601D5730635D4A406B7
:1019B00001D5B60639D470BDFFF790FF2800FFF7B8
:1019C0008FFFA3E72800FFF789FF2800FFF788FFB4
:1019D000B1E72800FFF782FF2800FFF781FFBDE78E
:1019E0002800FFF77BFF2800FFF77AFFCBE72B6883
:1019F000022252421A612800FFF76FFFC9E72B68E5
:101A00000E4A1A61280000F0DAF8C8E72B680C4A81
:101A10001A61280000F0D4F8C5E72B684122524231
:101A20001A612800FFF75DFFC1E72B6821225242AF
:101A30001A61280000F0C2F8BDE7C0467FDFFFFF53
:101A4000FFFEFFFF0368204A904206D08022D205A5
:101A5000904202D01D4A904203D1702293434A68BB
:101A60001343194A90420CD08022D205904208D0EC
:101A7000164A904205D0164A904202D0154A90422A
:101A800003D1154A1A40CB681343802293434A6915
:101A9000134303608B68C3620B6883620A4B9842EE
:101AA00005D00B4B984202D00A4B984201D10B69EA
:101AB0000363012343610269134203D003690122D6
:101AC000934303617047C046002C0140000400406E
:101AD0000040014000440140FFFCFFFF70B5041EC0
:101AE0002AD03D23C35C002B20D03D250223635523
:101AF000210001C9FFF7A6FF01234822A3540A3A97
:101B0000A3540132A3540132A3540132A35401322D
:101B1000A3540132A3540132A3540132A35401321D
:101B2000A3540132A3546355002070BD3C330022FE
:101B3000C254FEF75FFDD8E70120F6E730B53C233D
:101B4000C35C012B30D03C230122C254013301324B
:101B5000C254026853689568144CA2421FD0702486
:101B6000A3430C68234353600368104A934209D08F
:101B70008022D205934205D00D4A934202D00D4AED
:101B8000934204D1802295438A682A439A603D2378
:101B90000122C254013B0022C254002030BD064C39
:101BA00023404C682343DAE70220F7E7002C01408A
:101BB0000004004000400140FFFF0FFF70477047E6
:101BC000704700000D4B802212059A600C4A80235A
:101BD000D358DB0310D5126AFF231340CC2B0BD054
:101BE000074B1A6AFF231340AA2B05D0044A116839
:101BF0008023DB020B4313607047C04600ED00E01A
:101C0000002002400D488546FFF7DCFF0C480D49D7
:101C10000D4A002302E0D458C4500433C4188C4247
:101C2000F9D30A4A0A4C002301E013600432A242AD
:101C3000FBD300F019F8FEF74DFBFEE70080002013
:101C4000000000200C000020101D00080C000020E7
:101C500028010020FEE703008218934200D170475C
:101C600019700133F9E7000070B500260C4C0D4DDA
:101C7000641BA410A64209D1002600F019F80A4CF2
:101C80000A4D641BA410A64205D170BDB300EB58E9
:101C900098470136EEE7B300EB5898470136F2E774
:101CA000081D0008081D00080C1D0008081D00087C
:101CB000F8B5C046F8BC08BC9E467047F8B5C046AB
:081CC000F8BC08BC9E46704709
:101CC800A0860100400D0300801A060000350C00B4
:101CD80040420F0080841E0000093D0000127A0077
:101CE8000024F40000366E010048E801006CDC02B4
:101CF80000000000000000000102030406070809B4
:041D08004D02000880
:041D0C0021020008A8
:0C1D1000010000000400000000093D007C
:0400000508001C05CE
:00000001FF
